S01700005A335377697463684D473231763637322E733337D2
S31500000000C018002031AA0200C5290000C929000035
S31500000010A70A02020002000004180FAC2067C50000
S3150000002000000000000000000000000000000000CA
S31500000030000000005CFB0200000000000000000061
S315000000400000000000000000FFFFFFFFFFFFFFFFB2
S31500000050FFFFFFFFFFFFFFFFFFFFFFFFFFFFFFFFAA
S3150000006000700F000000000000000000FFFFFFFF0F
S31500000070FFFFFFFF1C000000000000000000000062
S315000000800000000000000000F8410020F8410020B8
S31500000090C0180020D846030078C70200600F002071
S311000000A0240F00200000100000000000EB
S31500000200C018002031AA0200C5290000C929000033
S315000002108D880000CD290000D52900002DAA0200F6
S315000002202DAA02002DAA02002DAA02002DAA020064
S31500000230D92900002DAA02002DAA02002DAA02002B
S315000002405145000009620100C12C00004C2A000043
S315000002508159010075620100156201002D620100DD
S315000002600D620100493C00001D3D0000755B000069
S3150000027099A500004C2A00004C2A000095190000A0
S315000002804C2A00004C2A0000413D00004C2A000088
S315000002904C2A00004C2A00004C2A00004C2A000080
S315000002A04C2A00004C2A00004C2A00004C2A000070
S315000002B0796201001162010011430000B962010078
S315000002C04C2A0000114801004C2A00004C2A00006C
S315000002D04C2A00004C2A00004C2A00004C2A000040
S315000002E04C2A00004C2A00004C2A00004C2A000030
S315000002F04C2A00004C2A00004C2A00004C2A000020
S311000003004C2A00004C2A00002DAA020026
S3150000030CF8B500BFF8BC08BC9E467047F8B500BFF0
S3150000031CF8BC08BC9E46704710B5054C237833B91B
S3150000032C044B13B10448AFF300800123237010BDB6
S3150000033CF01E002000000000A040030008B5034B8F
S3150000034C1BB103490348AFF3008008BD0000000051
S3150000035CF41E0020A0400300154B002B08BF134BC6
S3150000036C9D46A3F5803A00218B460F461348144A46
S3150000037C121A2CF0EDF90F4B002B00D098470E4BB0
S3150000038C002B00D098470020002104000D000D48DA
S3150000039C002802D00C48AFF300802CF09BF920000B
S315000003AC29000AF019FB2CF081F900BF00000800A7
S315000003BCC01800200000000000000000F01E002005
S315000003CCF841002000000000000000007FB51D4B26
S315000003DC00241C700BF0F2F90228064628D10CF00A
S315000003EC59FD194B19780125062905710FD1174BA3
S315000003FC324628460CF0DEFC0CF016FD144A154964
S3150000040C0346012004B0BDE870400DF005BD072978
S3150000041CF2D100F05DFF1423C0B201930090CDE938
S3150000042C02440D4B2246082128460CF0C3FCE3E798
S3150000043C09F080FB09481AF013FF094B01221A70C8
S3150000044C04B070BD903200200D1F002015C80200AC
S3150000045C7DC702006601030078C7020098320020AF
S3150000046C0C1F002038B50F4B0F4C1B780025257040
S3150000047C93B10BF0A3F9022809D0284602F022FB0F
S3150000048C20464FF47A61BDE838401AF0F5BE0020DC
S3150000049CBDE8384002F0F2BA0BF090F90228F6D01B
S315000004AC38BD00BF0C1F00209832002010B5074B3A
S315000004BC002201201A7007F0F1FF054A0549034690
S315000004CCBDE8104001200DF0A7BC00BF883200200B
S315000004DCC0E00200B0C70200912808B504D1002084
S315000004EC02F0DEFA002008BD9028FBD1002002F0B5
S315000004FCC5FAF7E721B9034B187003481AF0B0BEDA
S3150000050C704700BF0D1F00209032002013B50B4B17
S3150000051C009004460A4A0B4901200DF07DFC24B1DB
S3150000052C094B00221A7002B010BD084840F6B831CB
S3150000053C02B0BDE810401AF09FBE00BF8EC7020085
S3150000054C97C702009CC702000C1F002088320020AF
S3150000055C08B5054A0549034601200DF05DFC044B20
S3150000056C00221A7008BD00BF8EC70200B0C7020079
S3150000057C0C1F002038B5C37B05460BB1832038BD54
S3150000058CC47C2CB901F058FA20B9EB7B002BF5D1C1
S3150000059C8120F4E72046F2E738B5C37B05460BB15C
S315000005AC832038BDC47C6CB9017D82898B1C9A4230
S315000005BC0AD380680CF07BFF07F0F4FF30B9EB7BB5
S315000005CC002BEDD18120ECE78020EAE72046E8E716
S315000005DCC37B10B504460BB1832010BDC37C1BB185
S315000005EC012B10D08120F8E7017D82898B1C9A4261
S315000005FC0CD380680CF05BFF08F0ACF940B9E37BD8
S3150000060C002BE9D1EEE708F0BDF9F7E78020E4E727
S3150000061C0020E2E7C37B2DE9F3470446002B40F0AC
S3150000062CBF80C37C062B00F2BD80DFE803F00423F9
S3150000063C5E7180BB9300037D8289191D8A4203D2A9
S3150000064C802002B0BDE8F0879DB28068691CC65C4C
S3150000065C0CF02DFF0335A36801465A5D304609F0B0
S3150000066CBFFC002840F0A080E37B002B14BF832046
S3150000067C8120E6E7037D8289591C8A42E0D39DB22C
S3150000068C691C881C8242DBD3A068C65C0CF00FFF89
S3150000069CA289291D8A42074605F10303D0D3A06817
S315000006AC10F80380DEB90CF002FF06352946A28944
S315000006BC8146A0680CF002FF8246A06828440CF024
S315000006CC1BFF01300544A06810FA85F5CDE900A59D
S315000006DC4B4642463946304609F0D2FCC1E74FF04C
S315000006EC000A4FF6FF795546F0E7037D8289191DFE
S315000006FC8A42A5D39DB28068691CC65C0CF0D7FEF5
S3150000070C0335A36801465A5D304609F073FCA8E729
S3150000071C017D8289CB1C9A4292D38068455C01315B
S3150000072C0CF0C5FE0146284609F06AFC99E7037DE4
S3150000073C8289191D8A4283D39DB28068691CC65C66
S3150000074C0CF0B5FE0335A36801465A5D304609F038
S3150000075C5DFC86E7037D8289591C8A42FFF470AFE3
S3150000076C9DB2A91C8A4205F10107FFF469AF881CEA
S3150000077C8242FFF465AFA068C65CC75D0CF097FEBD
S3150000078C024656B9A1682B1D0535CB5C0D44009568
S3150000079C3946304609F040FC63E7FF230025F6E7AF
S315000007AC83204EE781204CE700204AE738B5C37B0F
S315000007BC002B437D14BF8325C325012B044621D171
S315000007CC0368028A598858790BF0BEFCD0B12368AD
S315000007DC5B88033B052B13D8DFE803F00312080DE7
S315000007EC120D2046BDE83840FFF7D6BE2046BDE8C0
S315000007FC3840FFF70FBFE37B002B14BF8325812501
S3150000080C284638BD637D002BFAD12368228A598885
S3150000081C58790BF090FC0028F2D023685B8833B132
S3150000082C032BEDD12046BDE83840FFF7D1BE20465C
S3150000083CBDE83840FFF79EBE012070470120704787
S3150000084C01207047B5207047704700207047002084
S3150000085C704700207047002070470020704700202A
S3150000086C7047002070470020704701207047012018
S3150000087C7047B52070470020704700207047002055
S3150000088C7047002070477047002070477047002063
S3150000089C70477047002070478420704770470020CF
S315000008AC70477047704770470020704770470020AC
S315000008BC704701207047704770477047012070479A
S315000008CC0020704700207047034B1B6818780128DE
S315000008DC08BF0220704700BF8C2B002070470020F9
S315000008EC704700207047002070470020704700209A
S315000008FC704700207047002070470020704700208A
S3150000090C70477047B520704700207047002070472D
S3150000091C00207047704770477047B5207047704786
S3150000092C704770470020704770477047094A00238C
S3150000093CFF21137082F8783082F8653082F87730B0
S3150000094C82F8793082F87A1082F87B30024A13608A
S3150000095C704700BF0E1F0020A0320020F8B50D46D0
S3150000096C8C680A6828490646202002F0F4FE6B685B
S3150000097C7BB92649202002F0EEFE202009F0D0FBA0
S3150000098C2349202002F0FCFE2020BDE8F84009F0A7
S3150000099CC7BB002EF1D01F4D1F4E204F013C14F843
S315000009AC013F23B91A49202002F0EAFEE5E7752B30
S315000009BC18D0762B18D0772B18D0732B18D0722B07
S315000009CC18D0712B18D0622B18D06E2B18D02A2B5E
S315000009DC18D01349134A212B18BF1146202002F0B8
S315000009ECBAFEDCE72946F9E73146F7E73946F5E77B
S315000009FC0D49F3E70D49F1E70D49EFE70D49EDE731
S31500000A0C0D49EBE70D49E9E7A0FC020064C80200BA
S31500000A1C15C8020022C8020016C802002DC8020022
S31500000A2C6EC802006BC8020039C8020043C8020037
S31500000A3C4EC8020059C8020063C8020068C802000A
S31500000A4CF0B5214A92F87B30184452FA80F01F4BCD
S31500000A5C90F865C090F866501F78A5EB0C0500263B
S31500000A6CEDB23046F4B2A54225D90CEB060313447D
S31500000A7C5B7811B10CB92D2B17D0782B1FD0582BB6
S31500000A8C05D108B137240AE0013C012C14D9602B9E
S31500000A9C17D8402BF6D83A2B34BF302400241B1B16
S31500000AACDBB29F4203D900FB07300136DAE7052398
S31500000ABC82F879300020F0BD10270020F5E70028D9
S31500000ACCE2D05724EBE700BF0E1F0020DC180020F5
S31500000ADCFFF72CBF034B93F8770093F87B30C01AC3
S31500000AECC0B270470E1F00200021FFF7A9BF0000FF
S31500000AFC10B50A4B93F87B20024453FA82F292F813
S31500000B0C652013445C78A4F12D0359425941FFF733
S31500000B1C97FF2D2C08BF404210BD00BF0E1F0020B2
S31500000B2C30B50C4A92F87B300344C043DBB2C00F9D
S31500000B3C39B1D51895F8664095F86550641B241A9A
S31500000B4C0C7042FA83F393F865301844024B184440
S31500000B5C30BD00BF0E1F00200F1F0020F7B50E463C
S31500000B6C0DF1070115461C46FFF7DAFF9DF8073015
S31500000B7CAB42074688BF8DF807501CB19DF807405D
S31500000B8C2C1BE4B222463046002100F075FB3019CE
S31500000B9C9DF80720394600F013FB9DF8070003B0BB
S31500000BACF0BD38B508220C460123FFF7D7FF04F138
S31500000BBC0803621E043413F8011D12F8015F1D7040
S31500000BCCA3421170F7D138BD38B501460546012050
S31500000BDCFFF7C4FED5E901436CB91C46084D2368E2
S31500000BEC63B12946202002F0B6FD21460020FFF70E
S31500000BFCB5FE0C34F3E71B786E2BEFD038BD00BF77
S31500000C0CB319030008B50449202002F0A4FD2020E6
S31500000C1CBDE8084009F084BAD6C7020038B5FFF71C
S31500000C2CF1FF064D002461190C34631953F80C3C82
S31500000C3C03B938BD0020FFF791FEF4E768D5020032
S31500000C4C2DE9F84F1F4B204D53F820201F4920202B
S31500000C5C02F081FD2B681BB9BDE8F84FFFF7DEBF2C
S31500000C6C1B4FDFF874A0FFF7CDFF0026B94697F8A7
S31500000C7C7B30F4B2013B9C4204DB2868BDE8F84F9C
S31500000C8CFFF7A2BF47FA86F34C4493F8658000231E
S31500000C9CC84494F8662094F86510521A03F1010BB7
S31500000CACD2B2DBB2934205D30A49202002F053FD9F
S31500000CBC0136DCE7434451465A78202002F04BFDBE
S31500000CCC5B46E6E7E0180020A0320020D1C7020000
S31500000CDC0E1F0020B419030066E602002DE9F74F3B
S31500000CEC884C94F87730002B00F0A280864B1B784A
S31500000CFC13F0010F04F101071FD00025834E14E0F9
S31500000D0C6319202093F8662093F86530D21A44FABA
S31500000D1C85F3D2B293F86510394409F0FCF93146E3
S31500000D2C202002F018FD0135EDB294F87730AB4275
S31500000D3CE6D87749202002F00EFD94F8773001931F
S31500000D4CDFF8D8E1734B00269EF800801EF801CF21
S31500000D5C1EF8012C4FF00009ACEB020CB8445FFAFC
S31500000D6C8CFC4D461868002852D00138C24619E052
S31500000D7C2AB9002D4AD04FF001090C33F2E71AF8C4
S31500000D8C011BA1F1410BBBF1190F98BF2031A2F148
S31500000D9C410B98BFC9B2BBF1190F9CBF2032D2B21E
S31500000DAC8A42EAD1AAEB0801614510F8012FDFD17E
S31500000DBC002ADED11D46584B1D6094F87B3001335A
S31500000DCC84F87B30D5E901230136F6B2002A35D0FA
S31500000DDC1B786E2B31D03F2B23D04FF00009C84621
S31500000DEC4FF0070B042394F87710AA68B14212F857
S31500000DFC08702BD8AFB1904498F801302A2B10D03C
S31500000E0C212F1CBF032384F879300AE01D46B4E772
S31500000E1CB9F1000F01D1002DCDD1022384F8793020
S31500000E2C002594F87900002869D168680CF040F820
S31500000E3C03B0BDE8F04FFFF779BD1346019AB242F5
S31500000E4C82D8032284F879201D46EAE7732F09D845
S31500000E5C712F0BD2212F1FD0622F3CD0002F4BD1DC
S31500000E6C032246E0A7F17502022A45D8752F29D030
S31500000E7C762F2AD0732F2BD0722F47F6FF7A18BFF6
S31500000E8C4FF0FF3A012148460193FFF7D9FD504533
S31500000E9C019B01D984F87930AA68424452782A2AEF
S31500000EAC94F879201CBF08F101085FFA88F8002A2B
S31500000EBCB7D1212F1FBF013609F10109F6B25FFA2E
S31500000ECC89F990E74FF0FF0ADCE74FF6FF7AD9E78E
S31500000EDC4FF07F0AD6E794F87B204A4454FA82F204
S31500000EEC92F8652022445278222AD5D07B2AD3D078
S31500000EFC052284F87920CFE784F879B0CCE7FFF7A0
S31500000F0C9FFE95E70E1F00208A1F0020B4190300D0
S31500000F1C13C8020068D50200A0320020731F0020FF
S31500000F2C2DE9F3415E4C5F4F06460D464FF0000827
S31500000F3C66B90DF10701284609F0E6F878B12628BE
S31500000F4C00F0A980012384F879304BE0002D00F0E5
S31500000F5CA28016F8013B8DF80730013DEDB23A78C8
S31500000F6C9DF807303B700D2A01D10A2BE0D00D2BD2
S31500000F7C0CD0A3F10A025142514122788846042A28
S31500000F8CD6D8DFE802F0051D263C31000121F4E736
S31500000F9C21B1FFF7A3FE4FF00108C9E7202B63D060
S31500000FAC222B07D10223237094F87820642A5DD172
S31500000FBC0623C8E77B2B01D10323F4E70123F2E7D1
S31500000FCC09B9202BF0D194F87730112B3FD103239C
S31500000FDCB9E7222BF7D00029E6D0052384F879301F
S31500000FEC4FF0010804232370B8F1000FA0D094F839
S31500000FFC790008B1FFF724FEFFF798FC98E77D2BE4
S3150000100C94F87A0003D1FF28DDD005239BE7602BEB
S3150000101C13D8402B13D8392B8CBF002230229A1AA6
S3150000102CD2B20F2A10D8FF280BD002EB0012FF23E6
S3150000103C8DF8072084F87A30B6E75722EFE7372287
S3150000104CEDE784F87A2073E7202BDED170E70133C5
S3150000105CDBB284F87730234494F8782083F8652043
S3150000106C00232370002994D1884661E72378012B4D
S3150000107C09D19DF80730A3F1410119299CBF2033F2
S3150000108CDBB28DF80730A3189DF8071059700132A2
S3150000109C84F878204CE7404602B0BDE8F08100BFEA
S315000010AC0E1F00208B1F002049BA89B24840C0F39E
S315000010BC03114140080380B24840C3B280EA431092
S315000010CC704716F01FBC70477047704770477047E3
S315000010DC70477047704770477047704700207047DD
S315000010EC7047704700207047704770470020704764
S315000010FC7047704770470020704770470120704753
S3150000110C01207047704770477047704770477047AB
S3150000111C2DE9F047204DDFF8A090DFF8A0A00024C1
S3150000112C5FFA84F8404619F095FEFF2806460CD166
S3150000113C22461A49287802F023FB2878013408F055
S3150000114CEFFF142CECD1BDE8F087154B59F8242091
S3150000115C144947B213EA270338BF5346287802F0DE
S3150000116C0FFB002FE9DA14B1B8F1030F08D10E4BBF
S3150000117C0E49287816F0010F18BF194602F000FB2D
S3150000118C0A2CDAD10A4B0B49287816F0010F18BF36
S3150000119C194602F0F5FAD0E7291C00208DC9020089
S315000011AC15C80200B5C9020050C9020066C9020082
S315000011BC78C9020082C90200FCC802000B180300A1
S315000011CC8842F0B54FEA92031AD89BB29E00871953
S315000011DC04460D4604370434BC4205F104053AD1E5
S315000011ECC3EB8333314402EB8303013E304411FAE3
S315000011FC83F3994220D011F8012B00F8012FF8E760
S3150000120C541E20449BB22144A0EB830604460D4693
S3150000121C043E043CB442A5F104050ED16FF0030460
S3150000122C5C43C3EB833302EB830321449BB201344F
S3150000123C2044CB1A994209D1F0BD2F792771EF784A
S3150000124CE770AF78A7706F786770E2E711F801293D
S3150000125C00F8012DEEE715F804CC04F804CC15F8CB
S3150000126C03CC04F803CC15F802CC04F802CC15F820
S3150000127C01CC04F801CCAEE70244904200D1704791
S3150000128C00F8011BF9E710B5013801390AB9104607
S3150000129C06E010F8014F11F8013F9C4201D0E01A0C
S315000012AC10BD013A92B2F1E782B2074B42B11A80F5
S315000012BC000C064B0ABF4FF6CE2218801A807047D8
S315000012CC4BF6EF62F3E700BFA0190020A21900202D
S315000012DC094B1888020448BF80F0620042001A804D
S315000012EC064A1388190444BF83F4805383F00B0316
S315000012FC5900118058407047A0190020A2190020EF
S3150000130C034B1870034B1970034B00221A7070476D
S3150000131C971F0020961F0020981F00202DE9F04FE4
S3150000132C234E337885B007468846002B3DD0214D99
S3150000133C4FF6FB7398422C7803D952211E4800F0C5
S3150000134C1DFF1E4B4FF0000B9A46327818785FFA49
S3150000135C8BF94A4511D9484402A9C0B2019322F02F
S3150000136C13FA082241460DEB0200FFF78CFF0BF136
S3150000137C010B019B0028E8D14C462B78A34207D1E0
S3150000138C631C3278DBB29A422B7004BF00232B709D
S3150000139C9AF800301C44E4B24146204622F04EFB3B
S315000013AC18B93946204622F0BDF905B0BDE8F08FD4
S315000013BC961F0020981F0020AACA0200971F002023
S315000013CC024B187800F07F00704700BF991F002071
S315000013DC034B18780130C0B2187000F07F007047CC
S315000013EC991F00201FB5030A8DF80E3003230093B6
S315000013FC03AB8DF80D0000F0BDF905B05DF804FBEC
S3150000140C1FB5030A8DF80F1004218DF80E300091CC
S3150000141C03AB8DF80D0000F0ADF905B05DF804FBDB
S3150000142C2DE9F04389B00746BDF840509DF844605D
S3150000143CBDF84C4088460DF1090011460822994624
S3150000144CFFF7BEFE8DF81250012E4FEA15258DF8CA
S3150000145C11908DF813508DF8146017D0032E1CD1F3
S3150000146C082212990DF11500FFF7AAFE9DF85030CF
S3150000147C8DF81D3016230093BDF8542002AB41465F
S3150000148C384600F077F909B0BDE8F0838DF81540C1
S3150000149C240A8DF816400F23EDE70120F3E71FB55C
S315000014AC0C46194602238DF80D2000930A4603AB11
S315000014BC0146204600F05EF904B010BD70B586B04A
S315000014CC044616460DF10D0008221D46FFF778FE60
S315000014DC0A2300932A4603AB342120468DF8156067
S315000014EC00F048F906B070BD30B585B00024ADF8F3
S315000014FC0A20021D92B2012A1D46ADF80840ADF82D
S3150000150C0610ADF8044003D94FF6FF72904207D18E
S3150000151C064A2B46127801A920F004FB05B030BD13
S3150000152C014601AA204620F0C3FBF7E7A4190020C8
S3150000153C2DE9F74FFF2A98461DBF464B1B689C5C4E
S3150000154C002418BF6408B8F1FF0F1EBF414B1B687F
S3150000155C13F808700E46814614BF7F0800271546FF
S3150000156CFFF736FF4FEA19238DF800008DF803605C
S3150000157C0621360A68468DF804608DF801908DF8C0
S3150000158C02308DF805401AF0F1F9FF28064604D111
S3150000159C1824204603B0BDE8F08F4FEA440B0BF13C
S315000015AC070A0AEB4701C9B21AF094F90028EFD1E1
S315000015BC0446A3451BD10BF106013A4601F0FE0188
S315000015CC30461AF04EFA5FFA8AF44FF0000A5FFAC8
S315000015DC8AF5AF4223D83346BDF83020062148465B
S315000015ECFFF782FF044630461AF064F8D1E721462D
S315000015FC28461AF031FAA11D0246C9B230461AF035
S3150000160C30FA611CC9B228461AF026FAE11D0246C8
S3150000161CC9B2304602341AF024FAE4B2C9E76D00B6
S3150000162CEDB2294640461AF017FA214602463046D4
S3150000163C1AF017FA691CC9B240461AF00DFA611C69
S3150000164C0246C9B2304602341AF00BFA0AF1010A04
S3150000165CE4B2BCE7401900202DE9F04188B00F46F2
S3150000166C02A906460AF076F900287CD0FFF7B0FEF0
S3150000167C8DF8100019F090FD8DF8110019F08CFD05
S3150000168C000A8DF81200082239490DF11300FFF7F4
S3150000169C97FDBDF808308DF81C301B0A8DF81D30EF
S315000016AC0F219DF80D308DF81B6004A88DF81E30A7
S315000016BC1AF05CF9FF28044657D04FF000089DF845
S315000016CC0D305FFA88F2934208F101081DD8012209
S315000016DC0DF10E0120461AF08BF94FF000089DF81B
S315000016EC0E305FFA88F2934208F1010824D823469B
S315000016FC3A4620210020FFF7F7FE0546204619F052
S3150000170CD9FF284608B0BDE8F081002130460AF022
S3150000171C4DF90DF107018DF807000546012220460B
S3150000172C1AF066F92D0A01220DF1070120468DF8F3
S3150000173C07501AF05DF9C2E7012130460AF036F976
S3150000174C0DF107018DF807000546012220461AF017
S3150000175C4FF92D0A01220DF1070120468DF807508D
S3150000176C1AF046F9BBE7A325CBE71825C9E700BF56
S3150000177CD9400020F8B51C460E4617460546FFF71D
S3150000178C27FE9DF81810207020461AF0EFF8FF2857
S3150000179C04460BD003463A4628463146FFF7A4FECC
S315000017AC0546204619F086FF2846F8BD1825FBE7A6
S315000017BC08B5FFF76BF80DF00BFCBDE8084006F01A
S315000017CCD7BA08B5FFF765F80DF02EFC06F068FCE5
S315000017DCBDE8084007F042B97047FFF784B8FFF739
S315000017EC88B80020704738B504460D46FFF79CF8BC
S315000017FC29462046BDE8384009F02AB9FFF77BB8E0
S3150000180CFFF786B80122052110460EF0EFB8042228
S3150000181C052101200EF0EAB80322052101200EF065
S3150000182CE5B80222052101200EF0E0B8052211468A
S3150000183C01200EF0DBB80622052101200EF0D6B8E9
S3150000184C4122052101200EF0D1B8402205210120AC
S3150000185C0EF0CCB84222052101200EF0C7B80022AA
S3150000186C052101200EF0C2B80222062101200EF03D
S3150000187CBDB84222062101200EF0B8B8412206213D
S3150000188C01200EF0B3B80122062110460EF0AEB8B8
S3150000189C4022062101200EF0A9B8002206210120C3
S315000018AC0EF0A4B80322082101200EF09FB80222E4
S315000018BC082101200EF09AB80722082101200EF00B
S315000018CC95B80622082101200EF090B804220821B2
S315000018DC01200EF08BB80522082101200EF086B8E7
S315000018EC0022082101200EF081B8012208211046A1
S315000018FC0EF07CB84022032101200EF077B80122AD
S3150000190C032110460EF072B80022032101200EF0BE
S3150000191C6DB80222032101200EF068B801220021C5
S3150000192C09200EF063B8000070B5134C8A00A3189A
S3150000193C22449B781D09062D98BF104E03F00F0309
S3150000194C94BF755DFF25062B05719ABF0C4DEB5C9C
S3150000195CFF234371FF3B18BF01238371D37014F827
S3150000196C2130084C4370537883700146204604F0AE
S3150000197C71F90123A36070BD9A1F002043E1020098
S3150000198C3CE10200002000407FB52249224800229B
S3150000199CFF23CDE901228DF8093003784C6C8D6B51
S315000019AC03922C40E407DBB228D5022B26D88C6C8C
S315000019BC1A4901EB8301A5B2CE78194906B3260460
S315000019CC1ED521F813201749012202FA03F30A78CF
S315000019DC1343154A0B701378CBB100231478DC40F3
S315000019ECE407D9B20FD501701078012404FA03F379
S315000019FC4340DBB201A81370FFF796FF04B070BD2D
S31500001A0C21F81350DFE70133032BE7D1F6E7032365
S31500001A1C0370F3E700200040A61F00209A1F002049
S31500001A2CAA1F0020A81F0020A71F00200120704716
S31500001A3C012070470120704710B5084C23681B68BD
S31500001A4C58790AF0C6FC23681B685879FEF729FFFB
S31500001A5C00200DF0ABFC012010BD00BF443F002060
S31500001A6C2DE9F84F184E80460D461446994606F158
S31500001A7C010A0DB9BDE8F88F102D4FF00D0249463D
S31500001A8C50462F4628BF1027FFF79AFB01233370C9
S31500001A9C0D48F4730023B373013422F069F80B4933
S31500001AAC5FFA87FBE4B2424612F8013B11F8010FCC
S31500001ABC434002F8013CA2EB0803DBB25B45F3D3CF
S31500001ACCED1BADB29046D4E7B41F0020B31F002027
S31500001ADC2DE9F04F374D85B01746BDF8388001908B
S31500001AEC03930D220F9B02930E460146681CFFF7CB
S31500001AFC67FB49232B7028464FEA1823AB7385F8EE
S31500001B0C0F8022F035F82B7883EA17232B706B782D
S31500001B1C4FF002097B406B704C46AA464FF0000B07
S31500001B2C21E0C4F1100CA7EB0B031FFA8CFC9BB243
S31500001B3C634528BF63463046A11B00EB010C5FFAD8
S31500001B4C8CF2A0EB060C1FFA8CFC9C451BD31C4498
S31500001B5CE4B29B44102C1E441FFA8BFB03D128467F
S31500001B6C22F006F80024BB45DBD314B1504621F015
S31500001B7CFFFFB9F1010F4FF00004039E47460BD04F
S31500001B8C4FF00109CAE710F801CB1AF802E08CEA0B
S31500001B9C0E0C0AF802C0D0E7029806490422FFF799
S31500001BAC0FFB019B02982246042105B0BDE8F04FBD
S31500001BBCFFF756BFB41F0020F7B5099FBDF82040AC
S31500001BCCCDE9004706461D46FFF782FF2CB133468A
S31500001BDC012221462846FFF743FF002003B0F0BD43
S31500001BEC2DE9F743BDF828700F4C1E46054688466E
S31500001BFC91460346394630460122FFF731FF3346FC
S31500001C0C4A4641462846CDE90074FFF761FF042297
S31500001C1C21460B98FFF737FB002814BF7E200020C7
S31500001C2C03B0BDE8F08300BFB01F00202DE9F341DF
S31500001C3C0A4F0C46991815461E46804621443846CE
S31500001C4C0422FFF7BDFACDE9006763192A4621463F
S31500001C5C4046FFF7C5FF02B0BDE8F081C41F002067
S31500001C6C002070470020704770477047F7B50A4E42
S31500001C7C0A4F0B4D002456F8243003B93B6835F84F
S31500001C8C1420009207492246012001340CF0C4F8B6
S31500001C9C292CF0D103B0F0BDA8190020501A002051
S31500001CAC483300204AE1020008B5FFF7DFFFBDE824
S31500001CBC084000F0EFB8000007B50020FEF714FF4F
S31500001CCCC2B2282A0DD8084B53F822300BB9074B51
S31500001CDC1B68074931F812100091012005490CF0D8
S31500001CEC9BF803B05DF804FBA8190020501A0020DD
S31500001CFC483300204AE10200FFF7B8BF70470000E6
S31500001D0C38B50020FEF7F0FE04460120FEF7ECFE87
S31500001D1C0549054601200CF07FF8A9B2E0B2BDE8F2
S31500001D2C384000F0CFB800BF55E10200F7B50A4EB7
S31500001D3C0A4F0B4D002456F8243003B93B6835F88E
S31500001D4C1420009207492246012001340CF064F855
S31500001D5C292CF0D103B0F0BDA8190020501A002090
S31500001D6CF63200204AE1020073B502AB03E9060025
S31500001D7C0446019D18F062FF0646204618F06CFFDB
S31500001D8C9DF800008EB1202C0FD82B78012B36D85D
S31500001D9C03EB4313384923444FF6FF7531F81320F0
S31500001DACAA4202D0013221F81320344B344A33F8BC
S31500001DBC145032F814604FF6FF718D421CBF691C2B
S31500001DCC23F8141004F0FD01092930D1998A928A5E
S31500001DDC0144914235DA998233F81430B34204D374
S31500001DECB54202D22046FEF75DFD264B0025EA5C85
S31500001DFCA24228D00135112DF9D102B070BD022BAB
S31500001E0CD3D11D4B33F814204FF6FF718A421CBFF9
S31500001E1C013223F8142004F121014FF6FF7533F833
S31500001E2C1120AA421CBF013223F81120BDE71D2C3C
S31500001E3CD2D1598F0144508F814201DA5987CBE7B1
S31500001E4C928A9A82C8E714F0D8FC0F4B1B7883420F
S31500001E5C044603D8E0210D4800F090F904EB041475
S31500001E6C0B4A2C444FF6FF7132F814308B42C4D017
S31500001E7C013322F81430C0E79A330020483300208F
S31500001E8CF6320020D3E40200851900203DE402005E
S31500001E9CD4320020522200210148FFF7EDB900BFD1
S31500001EAC483300205222FF210148FFF7E5B900BF55
S31500001EBCF632002008B5FFF7EDFFBDE80840FFF746
S31500001ECCF1BF0000014B23F810107047F6320020CA
S31500001EDC0020704700207047704701207047002093
S31500001EEC7047000010B5002090B0FEF7FDFD4022B3
S31500001EFC6946044600F024F9034630B122460649E9
S31500001F0C01200BF089FF10B010BD01226946082094
S31500001F1C0BF014FFF7E700BFE4E4020010B500F085
S31500001F2C93F8002814BF79226E22144901200BF075
S31500001F3C73FF00F089F8F8B100F016F9002814BF09
S31500001F4C79226E220E4901200BF066FF02220D4902
S31500001F5C01200BF061FF0C4B0C4953F8042C1C1F91
S31500001F6C01200BF059FF04F11003E2680749012028
S31500001F7CBDE810400BF050BF3F22E3E752E60200EB
S31500001F8C69E6020079E602002434002098E6020095
S31500001F9C70B500F07FF82049044601200BF03CFF99
S31500001FAC2CB91E490120BDE870400BF035BF00F07E
S31500001FBC79F822691A492688054601200BF02CFF70
S31500001FCC6288184901200BF027FF1749A2880120C7
S31500001FDC0BF022FF6388E28813F0100F14BF13492D
S31500001FEC134901200BF018FFA268124901200BF0CF
S31500001FFC13FFE268104901200BF00EFF0F4A104B3D
S3150000200C1049B6F5817F28BF134601202A46BDE844
S3150000201C70400BF001BF00BF2EE502003BE502004D
S3150000202C5CE502007AE502009BE50200B8E50200D9
S3150000203CD5E50200F3E5020011E602001CE50200FC
S3150000204C26E502002FE60200034B1878012894BF00
S3150000205C00200120704700BFC81F002038B5054D71
S3150000206C04462878A04203D02146FEF71CFC2C70AF
S3150000207C38BD00BFC81F0020054B1B7820B1012BB3
S3150000208C04D80220FFF7EABF012BFBD8704700BF2C
S3150000209CC81F002008B500F019F8BDE8084006F086
S315000020AC69B8000010B5084C237853B9FFF7F2FF56
S315000020BC0123237028B10388B3F5817F24BF037DE8
S315000020CC2370207810BD00BFC91F002038B5164BF1
S315000020DC1B78012B27D806F033F8144C144902460A
S315000020EC01200BF099FE0120FFF7C6FF2578FF2D86
S315000020FC19D106F03FF8A8B143880E48C3F3400344
S3150000210C182229462370FFF7B7F82378012B0AD13A
S3150000211CFFF7C8FF042806D9D9210748BDE838407F
S3150000212C00F02CB8207038BDC81F0020541A0020AF
S3150000213CBBE6020020340020CDE60200FFF7C6BF46
S3150000214C70B504460D461646FFF7C0FF0420FFF790
S3150000215C85FF32462946204606F042F80446022000
S3150000216CFFF77CFF204670BD08B5FFF7AFFFBDE853
S3150000217C084006F047B842DE7047000038B5044602
S3150000218C0D4615F08DFC00F0CFFD04F064FA2946DF
S3150000219C204614F0CBF92B4622460549012007F0C0
S315000021ACC5FF29462046BDE83840FFF7E4BF00BF0F
S315000021BC50E702006D4B2DE9F0416D4C5A68A26553
S315000021CC5A6AE2656B4AD2F800122166D2F80422EA
S315000021DC62669A6AA266DA6AE2661A6B22675A6BBA
S315000021EC6267DB6BA26BA367D4E90F5312F0040F83
S315000021FC18BF1D4628F0DCFC0022854203466065AC
S3150000220C22655CD35C4A954259D8AA696264E9692D
S3150000221CA164B4F85810C1F30801062953D15749E3
S3150000222C8A4250D356498A424DD211884DF64262A3
S3150000223C914248D16268C4F89420A268C4F89820E8
S3150000224C40F201704F4A5049934238BF13460A4632
S3150000225C8B423BD3D31AE3640023C4E91F33C4E98E
S3150000226C2133C4E92333484E444FDFF814C1AE4240
S3150000227C32D8D4E91FC7D4E92165D4E923124FF02B
S3150000228C000E013BDBB2FF2B41D1BEF1000F05D096
S3150000229CC4E91FC7C4E92165C4E92312B4F8583050
S315000022ACC3F30803DA1E0F2A55D8DFE802F03A5BAF
S315000022BC474A54545454545154545454543E002282
S315000022CCC4E911221D464FF42060BBE71E68B6F127
S315000022DCCD3FBFD10433BBE756F8042DBA42C6D363
S315000022EC6245C4D2D107C2D5002104EB010EDEF83B
S315000022FC7CE09645BBD004311829F6D10BB90523E1
S3150000230C01E0013BDBB204EB8301CA67AFE7E046B1
S3150000231C4FF0010EBC4637462E460D461146424638
S3150000232CAFE740F60120BDE8F081184BDB6913F0EE
S3150000233C020F40F2025318BF1846F4E740F603208A
S3150000234CF1E740F60423B0F5206F08BF1846EAE71C
S3150000235C40F60520E7E7013B40F60722412B98BFE4
S3150000236C1046E0E740F60220DDE700BF00ED00E096
S3150000237C0000002000E100E0A0180020240300006B
S3150000238C78C702009C000020C018002000200540E1
S3150000239C062804D007280CBF012002207047002015
S315000023AC704700002DE9F04385B04FF48073ADF80B
S315000023BC0C3001F091FC01211548DFF85C80DFF848
S315000023CC5C9003F03FFD0121124803F03BFD002415
S315000023DC012703AB0122E35C18F8336008EBC30357
S315000023EC30465D680023294604F036FE4946E8B2BD
S315000023FC01F080FCCDE9007701232A4629463046B8
S3150000240C04F0DEFD14B105B0BDE8F0830124E0E76D
S3150000241C4041050000350A0064E70200B1240000C3
S3150000242C08B5FFF7B5FF022816BF024B0020185C53
S3150000243C08BD00BFCA1F002008B5FFF7A9FF022878
S3150000244C1CBF014B195408BDCA1F002008B5FFF765
S3150000245C9FFF022805D0034A135CB3FA83F35B098A
S3150000246C135408BDCA1F002008B5FFF791FF0228B8
S3150000247C11D00A4A12F8301030234B4302EBC0023B
S3150000248C07491944536803EBC1039B001868B0FA5B
S3150000249C80F0400908BD0020FCE700BF64E702009D
S315000024AC1CA0104270B50446FFF7DEFF0026054659
S315000024BC01E000261D462046FFF7D6FFA84203463C
S315000024CCF7D10136052EF2D12046FFF7A9FFA84217
S315000024DC0BD029462046FFF7AFFF2046FFF7A0FF9B
S315000024EC0146204609F0B4F870BD2046FFF7AEFF52
S315000024FC2046FFF795FF0146204609F0A9F820462D
S3150000250CFFF7A4FFE9E7000010B504F0E3FF04466B
S3150000251C04F0DAFF0022012101FA02F3234014D061
S3150000252C1B4B33F812301B4A062B13D040F20721F3
S3150000253C8B420DD1184919480C68844208D14CF2CB
S3150000254C3C334B800B88138012E00132112AE3D105
S3150000255C104AF8E7104B58884FF20F01884214D1F5
S3150000256C1988B1F5406F10D211804CF23C325A806A
S3150000257C084B1A8840F201739A4201BF084A094B6C
S3150000258CD2E90001C3E9000110BD4FF4C061EBE7CD
S3150000259C74E70200D41F00200000002007020FF091
S315000025AC94000020CC1F0020014B1888000A7047AD
S315000025BCD41F0020014B1888704700BFD41F002081
S315000025CC2DE9F04F4D4CA36BD4F850B0D4F840A085
S315000025DC5A074FBF0027D4F84CB0D4F85480D4F81F
S315000025EC3CA05ABF464FDFF84091DFF84091454A70
S315000025FC48BFB84613F0080F434B18BF1A46B7EB43
S3150000260C08061CBF7308642187B01FBF01FB0B3380
S3150000261CB3FBF6F39BB205933C49CDF800804B46D1
S3150000262CCDE9017A08BF0596054601F0A9F8B3B2C3
S3150000263CCDE900931FFA8BF2059B3549284601F02C
S3150000264C9FF8A36B5B070AD49C3E5E4507D1626D6F
S3150000265C304B9A4203D23049284601F091F8BA45DC
S3150000266C01D8C24504D24A462C49284601F088F8BE
S3150000267C284607F055FD236E0BB9636EBBB328498C
S3150000268CDFF8AC80DFF8AC90284601F064F8002641
S3150000269C0127226E07FA06F3134207D058F82620B4
S315000026AC13781BB14946284601F055F80136202E01
S315000026BCEFD1DFF87C80DFF87C9000260127626E74
S315000026CC07FA06F3134209D008EB8603D3F88020E9
S315000026DC13781BB14946284601F03DF80136122EF7
S315000026ECEDD1284607B0BDE8F04F01F043B80D49CF
S315000026FC284607B0BDE8F04F01F042B800000020B4
S3150000270CC018002086EA02007FEA02008EEA020068
S3150000271CBCEA02009C000020F5EA020021EB020054
S3150000272C3FEB02006EEB02007AEA02004B07030055
S3150000273C84EB02009FFC02002DE9F8430446FFF7E8
S3150000274C39FF40F60123984239D010D840F2025393
S3150000275C98421DD040F20173984224D040F20153A6
S3150000276C984213D16549204601F00AF822E040F65A
S3150000277C032398426CD03DD340F60423984200F0D4
S3150000278C9C8040F60523984200F0B580BDE8F8839E
S3150000279C5B49204600F0F4FF5A4B5B495A6C2046C5
S315000027AC00F0EEFF06E0574A5849D2E925232046A9
S315000027BC00F0E6FF2046BDE8F84307F0B1BC514DEA
S315000027CC5349204600F0DCFF95F86C309F0703D583
S315000027DC5049204600F0D4FF95F86F305E0603D5BD
S315000027EC4D49204600F0CCFF95F96F30002BE1DA0D
S315000027FC4A49B8E7434D4A49204600F0C1FF95F8CF
S3150000280C6830980704D06A6C3F49204600F0B8FF40
S3150000281C95F96830002B04DA6A6F4249204600F0BD
S3150000282CAFFFDFF80C81DFF8189100260127AA6E9E
S3150000283C07FA06F3134207D058F8262013781BB173
S3150000284C4946204600F09CFF0136082EEFD1B1E731
S3150000285C2C4D3549204600F093FF2B496A6C2046D7
S3150000286C00F08EFF95F86930590703D52F4920469D
S3150000287C00F086FF95F96930002B04DA6A6F294956
S3150000288C204600F07DFF2A4FDFF8B4800826AB6E99
S3150000289CF340DA0707D557F8262013781BB14146C3
S315000028AC204600F06DFF0136102EF0D195F86830F9
S315000028BC002B7FF47FAF1F4955E7124D1E491C4F65
S315000028CCDFF87C80204600F05BFF6A6C0E492046E0
S315000028DC00F056FF1026AB6EF340DB0707D557F812
S315000028EC262013781BB14146204600F049FF0136DD
S315000028FC1A2EF0D15EE711494BE700BF09E802003A
S3150000290C46E802000000002076E802008FE802008C
S3150000291CA9E80200C1E80200FBE802002EE9020069
S3150000292C6AE902008FE90200B3E90200CAE9020073
S3150000293C98E7020010EA020040EA020059EA020097
S3150000294CABE902002DE9F84F164C174FDFF8608003
S3150000295CDFF860A00646002523785FFA85FB0BB9E5
S3150000296CBDE8F88F57F8043B10492246304600F074
S3150000297CF2FE227804F1010982B9627882B10BF079
S3150000298C030103290CBF41465146304600F0E3FED5
S3150000299C304607F0C5FB01354C46DDE74C46E8E70B
S315000029AC4146F2E74CEC02000400002000E802006D
S315000029BC13C802008E0A030000F00CB800F00AB827
S315000029CC00F008B800F006B800F004B800F002B841
S315000029DC00F000B872B61EF0080F09D01EF0040FF6
S315000029EC0DD0DFF850E0AEE8FF1F6FF002000CE0F0
S315000029FCDFF840E0AEE8FF1F6FF00E0005E0DFF8F1
S31500002A0C34E0AEE8FF1F6FF006006946EFF309826B
S31500002A1C8EE8070086460848084C854501D3A5452F
S31500002A2C01D384F30888FFF7C5FB84F3088828F0E4
S31500002A3C9BF8000004000020A00F0020C018002006
S31500002A4CFFF7C6BF10B501210A4803F0FBF90121B7
S31500002A5C094803F0F7F9042211460023052004F077
S31500002A6CFBFA0521002304220846BDE8104004F0B9
S31500002A7CF3BA00BF4041050000350A00064B03EBD4
S31500002A8CC00213F83030516801228A403021594374
S31500002A9C024B5A50704700BFDCF202000CA00046F5
S31500002AAC064B03EBC00213F83030516801228A4002
S31500002ABC30215943024B5A50704700BFDCF20200DA
S31500002ACC0CA00044074A12F8301002EBC0025368FF
S31500002ADC01229A4030234B4303F1804303F52043F4
S31500002AEC9A617047DCF2020010B10020FFF7C6BFF6
S31500002AFCFFF7D6BF37B57F2A14BF154600254BF214
S31500002B0C34629142044619D17F2241F20201684691
S31500002B1C0823FFF7EFFF082224496846FEF7B3FBAC
S31500002B2C30B908237F2241F2F0116846FFF7E2FF25
S31500002B3C082269462046FEF743FB09E041F2F012F3
S31500002B4C91421AD11A490A6C496C01381D1F0BB9EE
S31500002B5C03B030BD013B9D4200F8012F4FEA122213
S31500002B6CF5D1033400229A42F2D00132042A04F839
S31500002B7C011F4FEA1121F6D1EAE701F47042B2F5D2
S31500002B8C805F07D1C1F30B0404F17E649AB203FB98
S31500002B9C0541D0E701F46042B2F5005FD8D1C1F32C
S31500002BAC0B0404F17E6404F58044EFE788F302001D
S31500002BBCB081E00F70B5054616461C46DBB14BF2EC
S31500002BCC3463994210D1082C28BF08247F2241F285
S31500002BDC02012346FFF78EFFA2B207492846FEF7ED
S31500002BEC52FB40B941F2F011234632462846BDE865
S31500002BFC7040FFF77FBF70BD88F302002DE9F843E4
S31500002C0C1646C20704460F4603D5DD212748FFF7B3
S31500002C1CB5FAF30703D5DE212448FFF7AFFA04F41F
S31500002C2C7043B3F5805F21D1C4F30B0404F17E64C9
S31500002C3C731E1F4A23449342254603D9E3211B489E
S31500002C4CFFF79CFADFF8649005EB0608454522D1A0
S31500002C5C56B372083946204627F011FF20B340F2CE
S31500002C6C0F111248BDE8F843FFF788BA04F4604325
S31500002C7CB3F5005F07D1C4F30B0404F17E6404F5CD
S31500002C8C80442546DEE7EA210848FFF777FA6FF01D
S31500002C9C0F050024D6E715F8013BFF2BD6D0F421FF
S31500002CAC4846FFF76BFAD1E7BDE8F883FCF2020061
S31500002CBCFF07E00FFFF780BE1FB501211648174C22
S31500002CCC03F0C0F801221146104603F00BFB042159
S31500002CDC072004F0E9FB124A1068516801AB03C3E4
S31500002CEC9068186001238DF804300D238DF80C3094
S31500002CFC01A9032320468DF80D3004F0DEFD094BA7
S31500002D0C04220221C3F8802161621A60A36A0B4374
S31500002D1CA36204B010BD00BF30253E000020054064
S31500002D2C90F3020000E100E0014804F0BABD00BFD8
S31500002D3C00200540A52803D10021024804F09DBDC2
S31500002D4C704700BF00200540024B186800F00100D8
S31500002D5C704700BF00200540024A9368002BFCD147
S31500002D6C704700BF002005400020704700207047C8
S31500002D7C7047000013B572B603F06DFC784B7949B9
S31500002D8C5B698B6000230B76E0204B768B764023B9
S31500002D9CC876087748778877CB77734B8022602480
S31500002DAC81F8202081F8210081F8220081F8232067
S31500002DBC83F8002383F80143202483F8024383F825
S31500002DCC034383F8042383F8052383F8062383F847
S31500002DDC072383F8082383F8092383F80A2383F847
S31500002DEC0B2383F80C2383F80D2383F80E2383F827
S31500002DFC0F2383F8102383F8112383F8122383F807
S31500002E0C132383F8142383F8152383F8162383F8E6
S31500002E1C172383F8182383F8192383F81A2383F8C6
S31500002E2C1B2383F81C2383F81D2383F81E2383F8A6
S31500002E3C1F2383F8202383F8212383F8224383F866
S31500002E4C232383F8242383F8252383F8262383F866
S31500002E5C272383F8282383F8292383F82A2383F846
S31500002E6C2B2383F82C2383F82D2383F82E2383F826
S31500002E7C2F2383F8302383F8312383F83203CB686E
S31500002E8C23F4E0631B041B0C43F0BF6343F40133D0
S31500002E9CCB604B6943F400734B614B6943F01003F1
S31500002EAC4B614FF4E0234B6205F070FCFFF72CFBF3
S31500002EBCEFF308832D4A043B4FF0CD3193421DD2DC
S31500002ECC2B4A2C4892B20021FEF7D6F962B62A4B51
S31500002EDC01225A64294BDB6C1B0E12D12849294856
S31500002EEC4AF6E8520A60026842F0040202600B607D
S31500002EFC254A136843F40053136004E01960043B3D
S31500002F0CDCE7012BF4D0214A136A23F4441343F46F
S31500002F1C88131362A2F580420124136843F480736C
S31500002F2C136002F546522432136843F4F8431360D7
S31500002F3C174B1C6105F06EFB01F072FA0023684614
S31500002F4C0093ADF804308DF8034003F017FE00F043
S31500002F5C21F927F04BFE0F480DF0A0FD02B010BD75
S31500002F6C0000000000ED00E000E100E0600F002032
S31500002F7C840E0000A000002000000E40B081E00F7F
S31500002F8C90310E4098310E4064310E4000400E4098
S31500002F9C00300E402021030040F2016027F0E4BD12
S31500002FACFEF762BE08B500210B20FEF75BFEBDE8FE
S31500002FBC0840FEF75ABE032000F076BA08B5FFF7B4
S31500002FCCF3FA044B0B289ABF00B203EB80001846A9
S31500002FDC08BD00BFE8F4020008B5FFF7EBFA044B96
S31500002FECC0F30F22C0B253F8223003EB800008BDA9
S31500002FFCACF4020010B5FFF7D7FA0446FFF7DAFA7D
S3150000300CC0B228B9012C24D164F07F04E4B216E0D6
S3150000301C072CF9D801A353F824F000BF4B3000005D
S3150000302C15300000493000004F3000004F300000D2
S3150000303C53300000573000005B3000000924204656
S3150000304C10BD0224FBE70324F9E70B24F7E706245B
S3150000305CF5E70446F3E700BF07282DE9F84F0446C9
S3150000306C0F462DD0082808BF022421460120FDF763
S3150000307C5CFCFFF769FE651ED5F1000848EB0508F8
S3150000308C00B3012C1ED1A520FFF754FE2646EFF304
S3150000309C1089012383F31088EFF3118A4FF0000B8C
S315000030AC8BF31188354D404607F0C4FA631EC5F8FC
S315000030BC00B0042B59D8DFE803F00E4D4D515500E6
S315000030CC0324D2E7FFF740FE18B1FFF745FE0026B2
S315000030DCDDE70646DBE72A4A136923F0040313618E
S315000030EC30BF284AD2F82834D2F81C2413409BB29D
S315000030FC254A2B60D2F80011480502D511684905FE
S3150000310C06D4D2F80011480305D51268510302D52E
S3150000311C43F480332B601C4BD3F80021520006D5A8
S3150000312C1B685B0042BF2B6843F400332B601EB157
S3150000313C0121164804F0A1FB404607F091FACFB1E5
S3150000314C8AF3118889F3108821460020BDE8F84FD0
S3150000315CFDF7EBBB012003F02BFCC2E7012003F0CB
S3150000316C5BFCBEE703F09EFCBBE788210848FFF733
S3150000317C05F8B6E787F31088E6E700BFDC1F0020EA
S3150000318C00ED00E000A0004000E100E0002005405A
S3150000319C18F50200044AD2F81C341B0C1B04C2F8A6
S315000031AC2434024A1360704700A00040D81F002048
S315000031BC0021FFF751BFFFF7FBBF00002DE9F04FD1
S315000031CC89B028F0C1FF0746002840F0DD806F4E1D
S315000031DC6F4D3168286826F055FD0446002827D027
S315000031EC33689A69D3E900011268904733689B6982
S315000031FC04A89B68984733689B690220DB6898474C
S3150000320C3C46326805985368B3FBF0F3E7B2BB4211
S3150000321C916904F1010442D8CB68002098473368C1
S3150000322C9B695B6898473168286826F02BFD044635
S3150000323CDFF888910026002C53D1564BF35C4FEAED
S3150000324C8608002B31D1544BF35C0193534BA246A9
S3150000325C03EB080B019B28685FFA8AF7BB4253D82D
S3150000326C4F4BF35C002B3CD04C4B019F9844FBB26C
S3150000327C7E2B286835D8D8F8003007EB030A03AA4A
S3150000328C02AB514626F038FF48452AD051462868ED
S3150000329C26F078FF013704460028E8D021E01268B2
S315000032AC0B6907FB00209847ABE73C4B286853F8A3
S315000032BC267003AA02AB394626F01EFF484507D0F6
S315000032CC78B9039B012B0CD03946286826F05AFF97
S315000032DC344B286853F8083039461A6826F036FEFF
S315000032EC04460136212EA6D1B4FA84F32E4A5B0984
S315000032FC13702E4B9C4241D02DD8002C32D0013B62
S3150000330C9C423FD0C5242DE0DBF800301F4403AAB5
S3150000331C02AB394626F0F0FE48450AD010B10AF148
S3150000332C010A97E7039B8BB9214B029AF35C9A42ED
S3150000333CF5D01F4B1B4A9B5D52F80820286839466E
S3150000334C26F076FD0028EAD0044689E73946286837
S3150000335C26F018FFEDE7174B9C4211D004339C4224
S3150000336CD0D1C1242B681B7C23B14FF48971124830
S3150000337CFEF704FF204609B0BDE8F08FC324F1E741
S3150000338CC424EFE7C224EDE7C624F3E7B41A002001
S3150000339CB01A00201CCE020074CD020060CE0200D2
S315000033AC3DCE020098CD0200E01F002002E000F0A6
S315000033BCE4CE020004E000F0A6F502000BE000F0FB
S315000033CC202970B506460C4615461AD8144A1278AA
S315000033DC22B3144A1068144A52F82110134A125D8B
S315000033EC3AB1324626F000FEC0B1BDE87040FDF79A
S315000033FC6ABE7F2D08BF00253246294426F062FDA1
S3150000340CF2E7FF2903D9BDE87040FFF7D3BB40F2C2
S3150000341C45110748BDE87040FEF7B0BE70BD00BF51
S3150000342CE01F0020B01A002060CE02001CCE020065
S3150000343CA6F502002028F8B504460D46164619D8FE
S3150000344C1449097829B31449144F0868144951F8DA
S3150000345C24103C5D3CB1126826F078FDC8B1BDE87D
S3150000346CF840FDF730BE7F2D08BF0025294426F015
S3150000347CDFFCF3E7FF2805D91A463146BDE8F840CC
S3150000348CFFF7BCBB4FF4BC710648BDE8F840FEF72D
S3150000349C75BEF8BDE01F0020B01A00201CCE02003D
S315000034AC60CE0200A6F5020008B5084B1B7863B186
S315000034BC074B53F82010074B0022186826F0D4FD52
S315000034CC18B1BDE80840FDF7FEBD08BDE01F0020A1
S315000034DC60CE0200B01A002070B5164685180AB9DF
S315000034EC304470BD01F00F030A2B34BF302437244F
S315000034FC2344013A090905F8013DD2B2EFE7000071
S3150000350CF0B5F9B100281CDA2D23B0F1004F137079
S3150000351C00D04042012115E0801B8642ECB205F139
S3150000352C0105F9D904B927B14D1C3034545401277F
S3150000353CE9B20133092B09D1303050540131C8B2EC
S3150000354CF0BD00210023DFF80CC01F465CF8236099
S3150000355C0025E2E730F602002DE9F04F95B04FF06A
S3150000356C000B02AC81468A4617461D465E46A046AF
S3150000357C3B7863B902ABE41AE4B2224619465046CC
S3150000358CC847002840F093803444E0B290E0252BE5
S3150000359C13D0BBF1000F14D12370013412AB9C4233
S315000035AC6DD3A4EB0804E4B2224641465046C84704
S315000035BC00287CD12644F6B260E0BBF1000F00D1A6
S315000035CC01373B78632B00F092801BD8392B09D836
S315000035DC302B80F09E80002BCCD0252B51D04FF079
S315000035EC000BDBE7582B00F08B80622BF7D12B6896
S315000035FC01936B6800934FF0000B009B9B4543D1E6
S3150000360C0835ECE7702B1ED017D8642B01D06C2B29
S3150000361CE5D16C2B05F1040B28686CD17B78752BE6
S3150000362C14BF0121002101D0642B00D101372246A1
S3150000363CFFF766FF04445D46D1E7752BE9D0782B7E
S3150000364C5ED0732BCBD1A4EB0804E4B2224602A9BC
S3150000365C504605F1040B2D68C84740BB2644F6B20C
S3150000366CC4B201302B5D002BFAD1224629465046B6
S3150000367CC847E0B926445D46F6B283464446013750
S3150000368C76E723700134AAE7019B204613F80B104A
S3150000369C0222FFF721FF12AB984204460ED3A0EB91
S315000036AC0804E4B2224641465046C84718B10020E9
S315000036BC15B0BDE8F08F2644F6B24446009B013B9C
S315000036CC5B4582BF20232370013412AB9C420BD383
S315000036DCA4EB0804E4B2224641465046C8470028EB
S315000036ECE5D12644F6B244460BF1010B85E72B686F
S315000036FC23700435C6E7752B0CBF0021012196E714
S3150000370C204602222978FFF7E7FE05F1040B044652
S3150000371C91E77A7802F0DF02582A19D1322B07F199
S3150000372C010B09D129882F1D04222046FFF7D4FE50
S3150000373C3D4604465F4652E7342B09D12F1D2D68B2
S3150000374C0422290C2046FFF7C7FE0422A9B2EDE796
S3150000375C4FF0010B22E70EB403B503AA52F8041B73
S3150000376C019207F019F8C0B202B05DF804EB03B091
S3150000377C704700000149FFF7EEBF00BF13C80200F7
S3150000378C0EB433B505AA054652F8041B019207F090
S3150000379C03F804462846FFF7EDFFE0B202B0BDE899
S315000037AC304003B0704708B506F0F6FFC0B208BD4E
S315000037BC2DE9F04F9B46584B85B01B78109F9DF812
S315000037CC44A0DDF85080064689461546002B00F0CD
S315000037DC9280072A00F291800E9B002B00F08D80C0
S315000037EC0F9B002B00F08980129BB3F5006F00F342
S315000037FC8480012801D1002F7FD0484B03EB0513A1
S3150000380C1B7B002B7BD0464C10220021684628F0EF
S3150000381C9FFF04EB45141022B9F1000F5CD1494609
S3150000382C204628F095FFA37843F01003A370E378A5
S3150000383C43F03003E370BAF1000F03D1DBB243F06F
S3150000384C0303E3703649129BCDF800B06A01013BC5
S3150000385C885A01EB020C63F30E1088520E9BCCF8BF
S3150000386C08300F9BCCF804309DF84C109CF80330B4
S3150000387C012E61F383038CF8033042D11323CCF869
S3150000388C0C309CE80F000CF1100E8EE80F00DCF8E3
S3150000389C1C20CCF814706FF0030161F39F02B9F190
S315000038AC010FCCF81C2004D10F9BCCF81830CCF8A7
S315000038BC04701A492A018B1841F802800027159AC0
S315000038CC5A6028469F605E732246694603F050FC98
S315000038DC384605B0BDE8F08F0021204628F038FFA9
S315000038EC1023A3700323E370BAF1000FAAD1DBB245
S315000038FC43F03003A5E70B48EBE70B48E9E70B4829
S3150000390CE7E7B8F1000FD4D19CF8023068F3041342
S3150000391C8CF80230CDE700BF64210020E41F0020A4
S3150000392C64200020028000F0018000F0078000F087
S3150000393C38B5104B1B780546BBB1C0B102F093FEEF
S3150000394C0D49002301EB0312147B3CB92B600123B8
S3150000395C1373146002F08DFE204638BD0133082B1C
S3150000396CF0D102F086FE0548F7E70548F5E705486D
S3150000397CF3E700BF64210020E41F0020048000F060
S3150000398C028000F0018000F038B502F06CFE0B4AA4
S3150000399C05460023D1180C7B5CB91033802BF9D16A
S315000039AC03F09CFB064B28461C7002F062FE204678
S315000039BC38BD284602F05DFE0248F9E7E41F0020F8
S315000039CC64210020058000F00D4B1B7810B50446D1
S315000039DC93B1072812D802F046FE0A4B03EB0413E8
S315000039EC1A7B2AB100241C7302F043FE204610BD3C
S315000039FC02F03FFE0448FAE70448F8E70448F6E705
S31500003A0C64210020E41F0020068000F0028000F0F4
S31500003A1C018000F013B5164B1868019000238DF841
S31500003A2C043002F020FE134B1C7824B102F021FE68
S31500003A3C114802B010BD01221A7002F01AFE0F4B8B
S31500003A4C1C731C7783F82C4083F83C4083F84C405D
S31500003A5C83F85C4083F86C4083F87C4004230DEBC0
S31500003A6C03008DF8073003F059FB2046E1E700BF51
S31500003A7C54F6020064210020038000F0E41F0020AD
S31500003A8C10B588B00E9C07940D9C06949DF830409A
S31500003A9C05940B9C04949DF8284003940024CDE9CE
S31500003AAC013400920B46024621462046FFF780FE63
S31500003ABC08B010BD10B588B00E9C07940D9C0694EA
S31500003ACC9DF8304005940B9C04949DF82840039473
S31500003ADC0024CDE9013400920B4602460121204612
S31500003AECFFF766FE08B010BD08B50A4B1B785BB134
S31500003AFC07280BD8084B03EB00131B7B43B10021A3
S31500003B0C03F002FB002008BD0448FCE70448FAE772
S31500003B1C0448F8E764210020E41F0020028000F02E
S31500003B2C018000F0078000F008B50A4B1B785BB1EA
S31500003B3C07280BD8084B03EB00131B7B43B1012161
S31500003B4C03F0E2FA002008BD0448FCE70448FAE753
S31500003B5C0448F8E764210020E41F0020028000F0EE
S31500003B6C018000F0078000F008B50A4B1B7853B1B2
S31500003B7C07280AD8084B03EB00131B7B3BB103F059
S31500003B8C49FB002008BD0548FCE70548FAE705484F
S31500003B9CF8E700BF64210020E41F0020028000F03B
S31500003BAC018000F0078000F00D4B1B7893B10728BD
S31500003BBC12D889B10B4B03EB00131B7B73B10A4B69
S31500003BCC1A6A012303FA00F010401ABF00200B708A
S31500003BDC0870704705487047054870470548704798
S31500003BEC64210020E41F002000200E40028000F01B
S31500003BFC018000F0078000F00B4B1B7810B50C46CB
S31500003C0C63B107280CD859B1084B03EB00131B7B87
S31500003C1C43B103F015FB2060002010BD0448FCE7FF
S31500003C2C0448FAE70448F8E764210020E41F002062
S31500003C3C028000F0018000F0078000F02DE9F843C7
S31500003C4C174E326EF36E12EA030800D5FEE7154CDA
S31500003C5CDFF854900127002518EA070F16D02368C1
S31500003C6CB7669BB1A16862680131A1602846984786
S31500003C7C637B012B0AD148B909EB4513197B1A7FD3
S31500003C8C60F3410160F3410219731A770135082D6F
S31500003C9C4FEA470704F11004DED1BDE8F88300BFF4
S31500003CAC00200E40E41F00206420002070B5094E51
S31500003CBC0446012504B970BD94FAA4F0B0FA80F05C
S31500003CCC05FA00F324EA030456F82030002BF1D051
S31500003CDC9847EFE768210020054B4FF48022C3F884
S31500003CEC80211A604FF48062C3F880211A607047F5
S31500003CFC00E100E038B504460D4602F0B4FC034B77
S31500003D0C43F82450BDE8384002F0B3BC68210020CB
S31500003D1C074BD3F82804D3F81C24104020F42A505F
S31500003D2C20F02A004004400CC3F82404FFF7BEBF61
S31500003D3C00A00040074BD3F82804D3F81C241040ED
S31500003D4C20F4AA4020F055000004000CC3F824040B
S31500003D5CFFF7ACBF00A00040104A4161136830B5B4
S31500003D6C1546ABB91060836011E0091B9C68416174
S31500003D7C1A467CB123465C698C42F6D9002CF4D0E9
S31500003D8C52B19060836013B15A69511A596130BDB2
S31500003D9C0022F0E72346F4E72860F3E7BC21002075
S31500003DAC10B500F05BFA094B094A196831B1136872
S31500003DBCC41A4B69A34203D31B1B4B61106003E06F
S31500003DCCC01A002310604B6110BD00BFBC2100203F
S31500003DDCAC210020074B1B6810B55C69064B1B68B1
S31500003DEC02201C4400F068FA2046BDE8104000F0A2
S31500003DFC3BBA00BFBC210020AC21002070B59DF859
S31500003E0C14500571002516468560049ABDF81850A5
S31500003E1CC58004460260C0E903360D4629B96161C6
S31500003E2C0BB11146984796B1354602F01CFC064676
S31500003E3CFFF7B6FF29462046FFF78EFF054B1B689A
S31500003E4CA34201D1FFF7C6FF304602F012FC002058
S31500003E5C70BD00BFBC2100200C4A136800217BB149
S31500003E6C83420AD1836879B18B6083681BB15A6926
S31500003E7C41690A445A610020704719469B68EEE76F
S31500003E8C0028EFD0022070471360EEE7BC2100201B
S31500003E9C70B5124D02F0E7FB2C780646CCB9104BE8
S31500003EAC1C60104B1C60104B1C8000F095F9012017
S31500003EBC00F002FA00F03EFA0C4B0246186040F293
S31500003ECCE73123460A4828F071FA0A4B1860012399
S31500003EDC2B70304602F0CDFB002070BDA8210020CF
S31500003EECBC210020AC210020B4210020B8210020E8
S31500003EFC18FCFFFFB02100202DE9F0410546F8B172
S31500003F0C02F0B1FB0F4F0646FFF74AFF2846D7F8DB
S31500003F1C0080FFF7A1FF044628B1304602F0A9FB4A
S31500003F2C2046BDE8F081A8453B6803D123B1FFF7D5
S31500003F3C51FFF2E7002BF0D1022000F0CBF9ECE7B1
S31500003F4C2224EDE7BC210020F0B50D4685B01646BF
S31500003F5C1F46044680B1FFF7CFFFBDF82C30029305
S31500003F6C9DF828300022CDE90073294633462046B9
S31500003F7CFFF744FF05B0F0BD2220FBE738B50C4631
S31500003F8C054698B191B100230B7002F06CFB084BFF
S31500003F9C1B6801210BB122781AB102F06AFB0020D2
S31500003FAC38BD9D420CBF21709B68F3E72220F7E7D2
S31500003FBCBC210020F0B587B01F4600230D461646DF
S31500003FCC8DF817300446A0B10DF11701FFF7D6FF97
S31500003FDC9DF817207AB9BDF8343002939DF830302D
S31500003FEC2946CDE9007320463346FFF707FF07B095
S31500003FFCF0BD2220FBE70320F9E70000F8B50C46DC
S3150000400C0646C8B1C1B102F02EFB0546FFF7C8FE45
S3150000401C73692360134B1B68B3420FD023B9284630
S3150000402C02F027FB03201CE0596922689B680A44AE
S3150000403C2260F1E700230FE0222012E00A4E2768E7
S3150000404C00F00CF93368C01A8742F3D900F006F970
S3150000405C3368C01A23681B1A2846236002F009FB32
S3150000406C0020F8BDBC210020AC21002000F0F6B8E1
S3150000407C0A4B1B68834210B50C460CD3084B1968C7
S3150000408C4FF47A720023A0FB010128F08FF901305E
S3150000409C2060002010BD2120FCE700BFB0210020CD
S315000040ACB8210020104B1A684FF47A7310B5A0FB98
S315000040BC0301A2B1531E134211D1B2FA82F2C2F11C
S315000040CC1F02C2F12004A2F1200301FA04F420FA23
S315000040DC02F2224321FA03F342EA030010BD002345
S315000040EC28F064F9FAE700BFB8210020C2072DE9D1
S315000040FCF84F044608D5354A138801339BB2138012
S3150000410CFFF74EFEFFF766FEA3075DD5304EDFF8D0
S3150000411CC49000F0A3F835680746451B02F0A3FAD5
S3150000412C4FF0000A8046D9F80040002C44D0636951
S3150000413CAB4205D95D1B65613760FFF74BFE3EE070
S3150000414C376023462A465969914209D8187994F85A
S3150000415C04C0844588BF1C469B68521A002BF2D1BA
S3150000416C404602F086FAD4F81480C4F814A002F083
S3150000417C7AFA83462046FFF76FFE584602F079FA24
S3150000418C23694BB102F06FFA216983462046FFF78B
S3150000419CE3FD584602F06DFAE36813B12168204638
S315000041AC984700F05BF84744ED1B0446054402F0C3
S315000041BC5AFA27468046B6E7022000F08BF84046AE
S315000041CCBDE8F84F02F055BABDE8F88FB4210020CF
S315000041DCAC210020BC21002010B51C4B86B05968C0
S315000041EC186803AA03C2197A53F8090F11700190C3
S315000041FC9A8817489B79ADF8082001218DF80A306A
S3150000420C002401F01FFE03A88DF80C408DF8104019
S3150000421C03F0ACF901A901208DF8044003F086F9EE
S3150000422C0C4A536A23F4FF6323F00703536240F2EC
S3150000423CFF7313620120946003F092F9064B4FF062
S3150000424C8042C3F880211A6006B010BD58F60200F1
S3150000425CA00914000020044000E100E0014B98681E
S3150000426C704700BF00200440114A9368516D926953
S3150000427C520704D4CA1A022A01D899420DD1C21A7D
S3150000428C012A98BF981C0A4BB0F1FF3F28BF01309A
S3150000429C58655A6A42F004025A62064A137833B1D8
S315000042AC03490B6D43F002030B6500231370704733
S315000042BC00200440601A00208207054A00F0010322
S315000042CC516A48BF43F004030B435362704700BF67
S315000042DC00200440830700F0010209D5074B012199
S315000042EC197007490B6D23F0030342F004020B65AA
S315000042FC03494B6A23EA02034B627047601A00209B
S3150000430C0020044010B502F0AEF9094A9369044640
S3150000431C590703F0010003F0070348BF40F0020001
S3150000432C1362FFF7E3FE2046BDE8104002F0A1B988
S3150000433C00200440014801F0D1BE00BFA0091400C2
S3150000434C044B4FF04042DA621A6B22F040421A6379
S3150000435C704700BF00300E402C48F0B500220368B1
S3150000436C2B4D114654592CB11E68AC18002E36D163
S3150000437C234601210832282AF4D101B103602549CC
S3150000438C254E0B680022144695592DB11F68B51899
S3150000439C002F2BD12B4601240832282AF4D104B144
S315000043AC0B6000681D4B026842B3DA69007922F093
S315000043BCFF020243DA611A6B42F0804209681A6303
S315000043CC0A68164BF2B1DA69097922F47F4242EA9D
S315000043DC0122DA611A6B42F000421A63F0BD1E79B3
S315000043EC2779B74284BF23460121C3E71F7995F885
S315000043FC04C0BC453CBF2B460124CDE71A6B22F00A
S3150000440C8042DBE71A6B22F00042E6E7CC21002063
S3150000441CDC210020D02100200422002000300E4098
S3150000442C08B51B4B1B4801221A700021282228F0C4
S3150000443C8FF928220021184828F08AF9174A184BB8
S3150000444C13601849184A13600A684B6DC2F3074289
S3150000445CFF2A02D0DBB2FF2B01D19023192213487D
S3150000446C02EB820103EBD1010160DB000521B3FBFA
S3150000447CF1F313440E4A1360FFF762FF0D4B012252
S3150000448CC3F880211A60FFF767FF002008BD00BF44
S3150000449CC0210020DC21002004220020CC21002099
S315000044ACD4210020B081E00FD0210020C4210020AF
S315000044BCC821002000E100E008490B6A0A6ADBB259
S315000044CCD2B29342F9D1064A0520DB00B3FBF0F3D6
S315000044DC1068C31A03F3070040B2704700300E4051
S315000044ECC821002070B5144C226B616A0A4011D5A4
S315000044FC124B1B681E6836B100251D605D60FFF708
S3150000450CDBFF2946B0474FF00043E362BDE870403D
S3150000451CFFF722BF5300F9D5094B1B681C6834B151
S3150000452C00221A605A60FFF7C7FF0121A047024B11
S3150000453C4FF08042DA62E9E700300E40D0210020CD
S3150000454CCC210020FFF7CEBF38B141B1013AB2F50C
S3150000455C006F044838BF0020704703487047014875
S3150000456C704700BF037000F0027000F00D490E4A50
S3150000457C0B7810B54BB9C2E90033C2E902330124FA
S3150000458C0C7042F82300002010BD002352F82310B3
S3150000459C0029F6D08142F4D00133042BF6D103481E
S315000045ACF2E700BF3C2200202C220020027000F013
S315000045BC38B504460D4602F056F8A28892B222B9D6
S315000045CC2A6002F056F8064838BD6388142202FBAE
S315000045DC034308332B6002F04CF80020F4E700BFCD
S315000045EC0B7000F038B504460D4602F03CF8A38873
S315000045FC9BB223B92B6002F03CF80C4838BD63889B
S3150000460CE188142202FB034308332B6063885A1C8F
S3150000461C92FBF1F301FB13239BB26380A388013B4E
S3150000462C9BB2A38002F025F80020E7E70B7000F0A0
S3150000463C7FB5012380F82C3090F8323093B90C4AB0
S3150000464C036803920022049002924A6801920122A6
S3150000465C00920A68016980681C33FFF72BFA07B0D1
S3150000466C5DF804FB012BEAD0002380F82C30F6E72A
S3150000467CCD4E00007FB5012380F82D3090F83230F6
S3150000468C83B9026834320D4B0393002304900293D2
S3150000469C4B680193012300930B68C1684068FFF7D0
S315000046ACEFF907E0012B02D102682832EBE7002371
S315000046BC80F82D3007B05DF804FB00BFCD46000036
S315000046CCF7B5906A01A91446FFF772FF144B98428E
S315000046DC20D0019B00251D619D6001F0C4FF019A4D
S315000046ECD668074626B1D2E9002329462046B047AC
S315000046FC01A9A06AFFF776FFA06A83889BB263B113
S3150000470C01A9FFF755FF01992046FFF7B3FF38467D
S3150000471C01F0AFFF012003B0F0BD84F82D30F6E7B1
S3150000472C0B7000F0427E30235343044A1A44437FF5
S3150000473C03EBC2039B001868C0B270471CA0104262
S3150000474C13B51D4A002352F82340617F81420ED0D7
S3150000475C0133042BF7D102B010BD0028FBD19DF814
S3150000476C0730002BF7D06068FFF7BEF9F3E794F833
S3150000477C3130022BEFD12046FFF7D4FF637D207535
S3150000478C022BE8D194F82E3003F0FF02002BE2D175
S3150000479C02A9606801F8012DFFF706FA237D1BB10B
S315000047AC94F82F30002BD8D0002384F82F30606873
S315000047BCFFF7BAF9CFE700BF2C22002090F8323071
S315000047CC53B903680122DA601A69D007FCD55A6F0F
S315000047DC42F001025A677047012B0CD103685A6CE0
S315000047EC9107FCD401225A609A68D207FCD55A6DFF
S315000047FC42F001025A65704790F832303BB90368B3
S3150000480C5A6F22F001025A670222DA607047012BB6
S3150000481C09D103685A6C9207FCD45A6D22F0010236
S3150000482C5A6502225A60704710B50446FFF7F2F833
S3150000483C0021201DFFF77CF8014608B1044810BD85
S3150000484C04F10800FFF774F80028F8D0F6E700BF6B
S3150000485C0E7000F0F8B5044617460D4601F003FF3E
S3150000486CA388E2889A42064605D800233B6001F0ED
S3150000487C00FF1648F8BD2388142202FB03430833B5
S3150000488C05F1100C2A4603CA624518605960154694
S3150000489C03F10803F6D1106818602388E188142206
S315000048AC02FB034308333B6023885A1C92FBF1F34B
S315000048BC01FB13239BB22380A38801339BB23046A2
S315000048CCA38001F0D6FE0020D4E700BF0A7000F0EA
S315000048DC73B504460D46C07DE67E002934D001230F
S315000048EC0422314602F0B8FB01230222217F207EEE
S315000048FC02F0B2FB94F83130022B16D100230122C0
S3150000490C617F607E02F0A8FB00230422A07EA17FBB
S3150000491C02F0A2FB0123627F607E01930093114695
S3150000492C02F04EFB002002B070BD032BFAD100231F
S3150000493C0122617F607E02F08FFB00230422A17F9F
S3150000494CA07E02F089FBEDE70B460A46314602F0E3
S3150000495C83FB2B462A46217F207E02F07DFB94F8B2
S3150000496C3130022B10D12B462A46617F607E02F035
S3150000497C73FB2B462A46A07EA17F02F06DFB627F5D
S3150000498C607E01950123C9E7032BCBD12B462A4622
S3150000499C617F607E02F060FB2B462A46CFE790F8DB
S315000049AC323013B9036818697047012B1CD10368A0
S315000049BC9B6803F00200DA0748BF40F00100590774
S315000049CC48BF40F008001A0748BF40F02000D9063F
S315000049DC48BF40F040009A0648BF40F080005B0696
S315000049EC03D540F400507047002070472DE9F34181
S315000049FC0D460446002879D001F035FE012D0646F9
S31500004A0C3BD1A36A9B889BB2002B3DD06068FFF715
S31500004A1CABF80023A06A84F82D3083889BB273B15F
S31500004A2C01A9FFF7C5FD01996068364F0831FFF7FC
S31500004A3CE3F8019B1F61A06A83889BB253BB204697
S31500004A4CFFF7ADFF8304FAD5023D012D10D8A068FF
S31500004A5CFFF78AF80023606A84F82C3083889BB2AF
S31500004A6C3BBB94F83130032B02D02046FFF7C4FE33
S31500004A7C304601F0FEFD002009E0022D38D1636AB4
S31500004A8C9B889BB2002BDFD101F0F3FD1E4802B0D0
S31500004A9CBDE8F08101A9FFF7A5FD019BD3F80C80B9
S31500004AACB8F1000FC7D09B68002239462046C04794
S31500004ABCC1E76946FFF77CFD0099A068114F0831E4
S31500004ACCFFF79AF8009B1F61606A83889BB2002BE4
S31500004ADCC7D06946FFF786FD009BDD68002DF3D035
S31500004AEC9B68002239462046A847EDE70748CEE7E3
S31500004AFC032DA9D1A36A9B889BB2002B86D1636A2E
S31500004B0C80E700BF097000F0087000F0027000F03A
S31500004B1C436A9888C0B270472DE9F3410546406A4E
S31500004B2C84889846A4B200230E461746CDE9003376
S31500004B3C3CB16946FFF73CFD01A90446A868FFF79E
S31500004B4C5BF8009971B16CB94868019BC01A386062
S31500004B5CC8F800300B6833602846FFF720FF02B018
S31500004B6CBDE8F0810021C8F8001039603160F3E728
S31500004B7C836A9888C0B270472DE9F3410546806A6E
S31500004B8C84889846A4B200230E461746CDE9003316
S31500004B9C3CB16946FFF70CFD01A904466868FFF7AE
S31500004BAC2BF8009971B16CB94868019BC01A386032
S31500004BBCC8F800300B6833602846FFF7F0FE02B0E9
S31500004BCCBDE8F0810021C8F8001039603160F3E7C8
S31500004BDC007D70472DE9F04104460E461746FFF757
S31500004BECB3FC804650BB092001F062FD0546A26A63
S31500004BFC93889BB213B194F82E3013B394F83220E9
S31500004C0C22BB23681D6915F0020533D0012384F8F5
S31500004C1C3030002A3FD13744BE42206836D1036972
S31500004C2C9E06FCD555B994F83230002B42D1236838
S31500004C3C5A6F22F002025A670822DA604046BDE833
S31500004C4CF081002DD4D0FEF7F9FFD0E7012A1BD155
S31500004C5C23689D6815F00205D8D1596C8807FCD4D9
S31500004C6C0421596099688907FCD5596D41F00201F8
S31500004C7C5965CBE70421D96019698907FCD5596FA9
S31500004C8C41F002015967C1E70025BFE716F8011B81
S31500004C9C02F0EEFDC0E7012AD0D13744B7422068B6
S31500004CAC03D183681907FCD5BCE716F8011B02F083
S31500004CBC0CFBF3E7012BC1D123685A6C9207FCD489
S31500004CCC5A6D22F002025A6508225A60B6E70000B5
S31500004CDC10B50446B0B190F82E3033B990F8313097
S31500004CEC022B0AD06068FEF7FFFE94F82E300133D3
S31500004CFCDBB284F82E30002010BDFFF713FD002820
S31500004D0CF3D1EFE70048F7E7027000F010B5044660
S31500004D1CD0B190F82E30CBB190F82E30012B06D1B5
S31500004D2C90F83130022B0AD06068FEF7FDFE94F83D
S31500004D3C2E30013BDBB284F82E30002010BDFFF77D
S31500004D4CF1FC0028F3D1EFE70148F7E70148F5E756
S31500004D5C027000F0057000F037B590F83150022D56
S31500004D6C044618D1A37F407D01229A40A37E3021B0
S31500004D7C5943134B0B4410B903F1806303E001282C
S31500004D8C05D103F1C0631A60002003B030BD217D4C
S31500004D9C0029F6D1F0E7012DF6D1037D73B9112365
S31500004DAC8DF80730FFF794FF2A460DF107012046D0
S31500004DBCFFF710FF2046FFF7A9FFE5E71323EFE700
S31500004DCC0CA0004090F83130032B05D00229417518
S31500004DDC18BF0175FFF7C0BF00487047057000F09B
S31500004DEC10B5044600283AD00321FFF7FFFD002139
S31500004DFC2046FFF7E7FF00212046FFF769FD94F8F0
S31500004E0C323003BB23680A22DA600021206A01F0E3
S31500004E1C19F894F83130032B03D00021607FFEF78C
S31500004E2C69FF6068FEF7D0FDA068FEF7CDFDFEF7C2
S31500004E3CABFD636A0020188058809880A36A18809E
S31500004E4C5880988010BD012BDFD1206802F029FA1A
S31500004E5C23685A6C9207FCD40A225A60D5E701489B
S31500004E6CF0E700BF027000F0F0B587B004461646B6
S31500004E7CFFF76AFB0546F0B9CDE9011604936A46BD
S31500004E8C0E4B606A039601A90593FFF7E3FC0546F2
S31500004E9C88B994F82C3073B92046FFF78FFC00992B
S31500004EAC2046FFF7C5FB94F83130032B03D025754C
S31500004EBC2046FFF751FF284607B0F0BD017000F001
S31500004ECC73B5506A01A91446FFF772FB334B98422F
S31500004EDC2FD094F83200019B002836D12268116C31
S31500004EEC11F4007128D02E49196198604FF40073A3
S31500004EFC936401F0B8FB0199CD68064635B14A6852
S31500004F0C8B682046D31A0A680969A84701A9606A02
S31500004F1CFFF768FB606A8588ADB2002D2FD001A91A
S31500004F2CFFF746FB01992046FFF782FB304601F05E
S31500004F3CA0FB012002B070BD106CC5051BD519482D
S31500004F4C186199604FF48073D2E7012813D1226857
S31500004F5CD16A11F0800106D01149196100219960BE
S31500004F6C80235363C5E7D06A400604D50D48186103
S31500004F7C99604023F5E700221A619A60B9E701238C
S31500004F8C23752046FFF7E8FE94F8313084F82C5050
S31500004F9C032BCBD02046FFF72FFCC7E70B7000F096
S31500004FAC0D7000F00C7000F02DE9F041094F04462D
S31500004FBC0D460FCF88B001AE0FC697E8070086E8FE
S31500004FCC0700002C00F0C48445B9034E304608B0E7
S31500004FDCBDE8F08178F60200037000F0382200215B
S31500004FEC204627F0B5FB2046FFF7C0FA06460028F8
S31500004FFCECD12B7C84F83130CD4A2B68236093425C
S3150000500C84F8320040F07F81CA4B2362CA4BE360BE
S3150000501C4FF440232361D5E90623002662621680ED
S3150000502C5680968084F82C60A3621E805E809E80DB
S3150000503C6B6803936B89ADF81430AB89ADF81230FD
S3150000504CAB7B8DF810300121EB7BBC4884F82D60CE
S3150000505C84F82F6005278DF816308DF8117000F046
S3150000506CF1FE0121B64800F0EDFE0121206A00F0A8
S3150000507CE9FE01A928688DF8046002F0BBFBD5F89F
S3150000508C00C06A7ADCF878002B7A20F4F85020F00D
S3150000509C1F00104340EA03200321CCF87800CCF81B
S315000050AC74102068DFF888C2604540F06281BB420C
S315000050BC40F27A81981F042840F27881A3F10B0004
S315000050CCB84240F27581A3F11100062808D9A3F164
S315000050DC1801062940F26E811F2B14BFFF21394699
S315000050EC042AE17540F26881511F042940F2668159
S315000050FCA2F10A01052940F26381A2F110010629E9
S3150000510C40F26081A2F11701072940F25D811F2A46
S3150000511C14BFFF2100212176002B58D0012B56D02D
S3150000512C022B54D0032B52D0042B50D0052B4ED02F
S3150000513C062B00F05381072B00F05281082B00F050
S3150000514C5181092B00F050810A2B00F04F810B2B5B
S3150000515C00F05A810C2B00F039810D2B00F03881B0
S3150000516C0E2B00F037810F2B00F03681102B00F040
S3150000517C3581112B00F02E81122B00F02D81132B73
S3150000518C00F02C81142B00F02B81152B00F02A81BA
S3150000519C162B00F02981172B00F02881182B00F014
S315000051AC2781192B00F026811A2B00F025811B2B49
S315000051BC00F024811C2B00F023811D2B00F0228192
S315000051CC1E2B00F021811F2B0CBF0723FF23E37638
S315000051DC002A00F0A983012A00F0A883022A00F015
S315000051EC9183032A00F09083042A00F08F83052A0A
S315000051FC00F08E83062A00F08D83072A00F08C833C
S3150000520C082A00F08B83092A00F08A830A2A00F008
S3150000521C6F830B2A00F06E830C2A00F06D830D2A27
S3150000522C00F06C830E2A00F06B830F2A00F070835B
S3150000523C102A00F06383112A00F06283122A00F010
S3150000524C6783132A00F06683142A00F06583152AF7
S3150000525C00F06483162A00F06383172A00F0628339
S3150000526C182A00F06183192A00F060831A2A00F0CC
S3150000527C49831B2A00F048831C2A00F047831D2A09
S3150000528C00F036831E2A00F035831F2A14BFFF2335
S3150000529C002323776B7C6376AB7C6377EB7CA376FE
S315000052AC2B7DA37701212046FFF712FB064600282B
S315000052BC7FF48CAE01F0D7F92F7C032F804640F09B
S315000052CC37832B682A8CDA675A6E42F004025A66C8
S315000052DC5A6F42F030025A6728684FF0FF338364E6
S315000052EC2B7C032B0CBF0521042102F049FA2B68F9
S315000052FC4FF44062DA602046FFF796FA06464046BF
S3150000530C01F0B7F962E60F4A934206D10E4B2362BF
S3150000531C0E4BE3604FF450237CE60D4A93421DD1AD
S3150000532C0C4B23620C4BE3604FF4602372E600BF18
S3150000533C000001400042040001000C004041050041
S3150000534C00350A00000401400052040001000D0063
S3150000535C000801400062040001000E00C54A934299
S3150000536C7FF433AEC44B2362C44BE3604FF470231B
S3150000537C50E6DFF80CC3604548D1052B14D9981FAD
S3150000538C042813D9A3F10B00052811D9A3F1110098
S3150000539C06287FF6A5AEA3F1180106290AD91F2BFC
S315000053AC14BFFF2105219BE6314699E6012197E6BC
S315000053BC022195E6394693E60021ACE60121AAE6E0
S315000053CC0221A8E60321A6E60521A4E60723FEE6AC
S315000053DC0823FCE60923FAE60A23F8E60B23F6E68D
S315000053EC0C23F4E60D23F2E60E23F0E60F23EEE68D
S315000053FC0023ECE60123EAE60223E8E60323E6E6CD
S3150000540C0423E4E60523E2E60623E0E6DFF874C2AD
S3150000541C604540F03981042B40F2F880591F03296E
S3150000542C40F2F680A3F10901042940F2F380A3F1BE
S3150000543C0E010E2940F2F080A3F11D01012940F264
S3150000544CED801F2B14BFFF210A21032AE17540F2C0
S3150000545CE780111F032940F2E580A2F10801042917
S3150000546C40F2E280A2F10D010E2940F2DF80A2F19A
S3150000547C1C01022940F2DC801F2A14BFFF210021E7
S3150000548C2176002B00F0DC80012B00F0DB80022B58
S3150000549C00F0DA80032B00F0D980042B00F0D880C2
S315000054AC052B00F0E380062B00F0E280072B00F0C2
S315000054BCC180082B00F0C080092B00F0C3800A2B9A
S315000054CC00F0C2800B2B00F0C1800C2B00F0C080CA
S315000054DC0D2B00F0BF800E2B00F0C8800F2B00F0B8
S315000054ECC780102B00F0A880112B00F0A780122B80
S315000054FC00F0A680132B00F0A580142B00F0A480DE
S3150000550C152B00F0A380162B00F0A280172B00F0B1
S3150000551CA180182B00F0A080192B00F09F801A2B6D
S3150000552C00F09E801B2B00F09D801C2B00F09C80B5
S3150000553C1D2B00F09B801E2B00F09A801F2B0CBF9E
S3150000554C0223FF23E376002A00F0D281012A00F021
S3150000555CD181022A00F0D081032A00F0CF81042ADF
S3150000556C00F0E081052A00F0DF81062A00F0DE81DA
S3150000557C072A00F0C781082A00F0BA81092A00F030
S3150000558CB9810A2A00F0B8810B2A00F0B7810C2ADF
S3150000559C00F0B6810D2A00F0C5810E2A00F0C481F8
S315000055AC0F2A00F0AF81102A00F0AE81112A00F00C
S315000055BCAD81122A00F09C81132A00F09B81142ADB
S315000055CC00F09A81152A00F09981162A00F098812C
S315000055DC172A00F09D81182A00F09C81192A00F0E8
S315000055EC9B811A2A00F09A811B2A00F099811C2AA9
S315000055FC00F098811D2A00F097811E2A00F09681F2
S3150000560C1F2A08BF052318BFFF2342E631461CE7B5
S3150000561C08211AE7012118E7394616E70A2114E78B
S3150000562C00212DE708212BE7012129E7052127E792
S3150000563C0A2125E7022385E7032383E7042381E771
